{"abi":[{"type":"constructor","inputs":[{"name":"_exporter","type":"address","internalType":"address"},{"name":"_importer","type":"address","internalType":"address"},{"name":"_oracleRelayer","type":"address","internalType":"address"},{"name":"_admin","type":"address","internalType":"address"},{"name":"_settlementToken","type":"address","internalType":"address"},{"name":"_invoiceAmount","type":"uint256","internalType":"uint256"},{"name":"_sourceCurrency","type":"bytes32","internalType":"bytes32"},{"name":"_settlementCurrency","type":"bytes32","internalType":"bytes32"},{"name":"_dueDate","type":"uint256","internalType":"uint256"},{"name":"_invoiceRef","type":"string","internalType":"string"},{"name":"_bridgeReceiver","type":"address","internalType":"address"}],"stateMutability":"nonpayable"},{"type":"function","name":"MANUAL_REVIEW_WINDOW","inputs":[],"outputs":[{"name":"","type":"uint256","internalType":"uint256"}],"stateMutability":"view"},{"type":"function","name":"acceptShipment","inputs":[],"outputs":[],"stateMutability":"nonpayable"},{"type":"function","name":"admin","inputs":[],"outputs":[{"name":"","type":"address","internalType":"address"}],"stateMutability":"view"},{"type":"function","name":"arbitrator","inputs":[],"outputs":[{"name":"","type":"address","internalType":"address"}],"stateMutability":"view"},{"type":"function","name":"bridgeReceiver","inputs":[],"outputs":[{"name":"","type":"address","internalType":"address"}],"stateMutability":"view"},{"type":"function","name":"cancelAndRefund","inputs":[{"name":"reasonCode","type":"uint8","internalType":"uint8"}],"outputs":[],"stateMutability":"nonpayable"},{"type":"function","name":"contestDeadline","inputs":[],"outputs":[{"name":"","type":"uint256","internalType":"uint256"}],"stateMutability":"view"},{"type":"function","name":"contestShipment","inputs":[{"name":"manifestCid","type":"string","internalType":"string"},{"name":"statement","type":"string","internalType":"string"},{"name":"guidelineVersion","type":"string","internalType":"string"}],"outputs":[],"stateMutability":"nonpayable"},{"type":"function","name":"courtContract","inputs":[],"outputs":[{"name":"","type":"address","internalType":"address"}],"stateMutability":"view"},{"type":"function","name":"currentDueDate","inputs":[],"outputs":[{"name":"","type":"uint256","internalType":"uint256"}],"stateMutability":"view"},{"type":"function","name":"currentNotional","inputs":[],"outputs":[{"name":"","type":"uint256","internalType":"uint256"}],"stateMutability":"view"},{"type":"function","name":"exceptionFlagged","inputs":[],"outputs":[{"name":"","type":"bool","internalType":"bool"}],"stateMutability":"view"},{"type":"function","name":"exceptionPaused","inputs":[],"outputs":[{"name":"","type":"bool","internalType":"bool"}],"stateMutability":"view"},{"type":"function","name":"exceptionReasonCode","inputs":[],"outputs":[{"name":"","type":"uint8","internalType":"uint8"}],"stateMutability":"view"},{"type":"function","name":"exceptionRef","inputs":[],"outputs":[{"name":"","type":"bytes32","internalType":"bytes32"}],"stateMutability":"view"},{"type":"function","name":"exporter","inputs":[],"outputs":[{"name":"","type":"address","internalType":"address"}],"stateMutability":"view"},{"type":"function","name":"finalizeAfterShipment","inputs":[],"outputs":[],"stateMutability":"nonpayable"},{"type":"function","name":"flagException","inputs":[{"name":"reasonCode","type":"uint8","internalType":"uint8"},{"name":"evidenceRef","type":"bytes32","internalType":"bytes32"}],"outputs":[],"stateMutability":"nonpayable"},{"type":"function","name":"fulfilledBps","inputs":[],"outputs":[{"name":"","type":"uint256","internalType":"uint256"}],"stateMutability":"view"},{"type":"function","name":"fundSettlement","inputs":[],"outputs":[],"stateMutability":"nonpayable"},{"type":"function","name":"fundedAmount","inputs":[],"outputs":[{"name":"","type":"uint256","internalType":"uint256"}],"stateMutability":"view"},{"type":"function","name":"getLockedRate","inputs":[],"outputs":[{"name":"","type":"tuple","internalType":"struct TradeFxSettlement.RateInfo","components":[{"name":"rate","type":"uint256","internalType":"uint256"},{"name":"benchmarkType","type":"bytes32","internalType":"bytes32"},{"name":"benchmarkId","type":"bytes32","internalType":"bytes32"},{"name":"asOfTimestamp","type":"uint256","internalType":"uint256"}]}],"stateMutability":"view"},{"type":"function","name":"getRollHistory","inputs":[],"outputs":[{"name":"","type":"tuple[]","internalType":"struct TradeFxSettlement.RollRecord[]","components":[{"name":"priorRate","type":"uint256","internalType":"uint256"},{"name":"rolledRate","type":"uint256","internalType":"uint256"},{"name":"rollCost","type":"uint256","internalType":"uint256"},{"name":"priorDueDate","type":"uint256","internalType":"uint256"},{"name":"newDueDate","type":"uint256","internalType":"uint256"},{"name":"benchmarkId","type":"bytes32","internalType":"bytes32"},{"name":"asOfTimestamp","type":"uint256","internalType":"uint256"}]}],"stateMutability":"view"},{"type":"function","name":"getSummary","inputs":[],"outputs":[{"name":"_status","type":"uint8","internalType":"enum TradeFxSettlement.Status"},{"name":"_invoiceAmount","type":"uint256","internalType":"uint256"},{"name":"_currentNotional","type":"uint256","internalType":"uint256"},{"name":"_settlementAmount","type":"uint256","internalType":"uint256"},{"name":"_fundedAmount","type":"uint256","internalType":"uint256"},{"name":"_currentDueDate","type":"uint256","internalType":"uint256"},{"name":"_contestDeadline","type":"uint256","internalType":"uint256"},{"name":"_rollCount","type":"uint256","internalType":"uint256"},{"name":"_exceptionFlagged","type":"bool","internalType":"bool"},{"name":"_courtContract","type":"address","internalType":"address"},{"name":"_arbitrator","type":"address","internalType":"address"}],"stateMutability":"view"},{"type":"function","name":"importer","inputs":[],"outputs":[{"name":"","type":"address","internalType":"address"}],"stateMutability":"view"},{"type":"function","name":"invoiceAmount","inputs":[],"outputs":[{"name":"","type":"uint256","internalType":"uint256"}],"stateMutability":"view"},{"type":"function","name":"invoiceRef","inputs":[],"outputs":[{"name":"","type":"string","internalType":"string"}],"stateMutability":"view"},{"type":"function","name":"lockedRate","inputs":[],"outputs":[{"name":"rate","type":"uint256","internalType":"uint256"},{"name":"benchmarkType","type":"bytes32","internalType":"bytes32"},{"name":"benchmarkId","type":"bytes32","internalType":"bytes32"},{"name":"asOfTimestamp","type":"uint256","internalType":"uint256"}],"stateMutability":"view"},{"type":"function","name":"oracleRelayer","inputs":[],"outputs":[{"name":"","type":"address","internalType":"address"}],"stateMutability":"view"},{"type":"function","name":"processBridgeMessage","inputs":[{"name":"","type":"uint32","internalType":"uint32"},{"name":"","type":"address","internalType":"address"},{"name":"_message","type":"bytes","internalType":"bytes"}],"outputs":[],"stateMutability":"nonpayable"},{"type":"function","name":"receiveRate","inputs":[{"name":"rate","type":"uint256","internalType":"uint256"},{"name":"benchmarkType","type":"bytes32","internalType":"bytes32"},{"name":"benchmarkId","type":"bytes32","internalType":"bytes32"},{"name":"asOfTimestamp","type":"uint256","internalType":"uint256"}],"outputs":[],"stateMutability":"nonpayable"},{"type":"function","name":"receiveRolledRate","inputs":[{"name":"newRate","type":"uint256","internalType":"uint256"},{"name":"rollCost","type":"uint256","internalType":"uint256"},{"name":"benchmarkId","type":"bytes32","internalType":"bytes32"},{"name":"asOfTimestamp","type":"uint256","internalType":"uint256"}],"outputs":[],"stateMutability":"nonpayable"},{"type":"function","name":"requestRateLock","inputs":[],"outputs":[],"stateMutability":"nonpayable"},{"type":"function","name":"requestRoll","inputs":[{"name":"newDueDate","type":"uint256","internalType":"uint256"}],"outputs":[],"stateMutability":"nonpayable"},{"type":"function","name":"resize","inputs":[{"name":"newFulfilledBps","type":"uint256","internalType":"uint256"}],"outputs":[],"stateMutability":"nonpayable"},{"type":"function","name":"resolveManualReview","inputs":[{"name":"timeliness","type":"bool","internalType":"bool"},{"name":"reason","type":"string","internalType":"string"}],"outputs":[],"stateMutability":"nonpayable"},{"type":"function","name":"resolveShipmentVerdict","inputs":[{"name":"verdict","type":"uint8","internalType":"uint8"},{"name":"caseId","type":"string","internalType":"string"},{"name":"reasonSummary","type":"string","internalType":"string"}],"outputs":[],"stateMutability":"nonpayable"},{"type":"function","name":"rollCount","inputs":[],"outputs":[{"name":"","type":"uint256","internalType":"uint256"}],"stateMutability":"view"},{"type":"function","name":"setArbitrator","inputs":[{"name":"_arb","type":"address","internalType":"address"}],"outputs":[],"stateMutability":"nonpayable"},{"type":"function","name":"setCourtContract","inputs":[{"name":"_court","type":"address","internalType":"address"}],"outputs":[],"stateMutability":"nonpayable"},{"type":"function","name":"setExceptionPause","inputs":[{"name":"paused","type":"bool","internalType":"bool"}],"outputs":[],"stateMutability":"nonpayable"},{"type":"function","name":"settle","inputs":[],"outputs":[],"stateMutability":"nonpayable"},{"type":"function","name":"settlementAmount","inputs":[],"outputs":[{"name":"","type":"uint256","internalType":"uint256"}],"stateMutability":"view"},{"type":"function","name":"settlementCurrency","inputs":[],"outputs":[{"name":"","type":"bytes32","internalType":"bytes32"}],"stateMutability":"view"},{"type":"function","name":"settlementToken","inputs":[],"outputs":[{"name":"","type":"address","internalType":"contract IERC20"}],"stateMutability":"view"},{"type":"function","name":"shipmentCaseId","inputs":[],"outputs":[{"name":"","type":"string","internalType":"string"}],"stateMutability":"view"},{"type":"function","name":"shipmentGuidelineVersion","inputs":[],"outputs":[{"name":"","type":"string","internalType":"string"}],"stateMutability":"view"},{"type":"function","name":"shipmentManifestCid","inputs":[],"outputs":[{"name":"","type":"string","internalType":"string"}],"stateMutability":"view"},{"type":"function","name":"shipmentReviewRequired","inputs":[],"outputs":[{"name":"","type":"bool","internalType":"bool"}],"stateMutability":"view"},{"type":"function","name":"shipmentStatement","inputs":[],"outputs":[{"name":"","type":"string","internalType":"string"}],"stateMutability":"view"},{"type":"function","name":"shipmentStatus","inputs":[],"outputs":[{"name":"","type":"uint8","internalType":"enum TradeFxSettlement.ShipmentStatus"}],"stateMutability":"view"},{"type":"function","name":"shipmentVerdictAt","inputs":[],"outputs":[{"name":"","type":"uint256","internalType":"uint256"}],"stateMutability":"view"},{"type":"function","name":"shipmentVerdictReason","inputs":[],"outputs":[{"name":"","type":"string","internalType":"string"}],"stateMutability":"view"},{"type":"function","name":"sourceCurrency","inputs":[],"outputs":[{"name":"","type":"bytes32","internalType":"bytes32"}],"stateMutability":"view"},{"type":"function","name":"status","inputs":[],"outputs":[{"name":"","type":"uint8","internalType":"enum TradeFxSettlement.Status"}],"stateMutability":"view"},{"type":"function","name":"timeoutManualReview","inputs":[],"outputs":[],"stateMutability":"nonpayable"},{"type":"event","name":"ArbitratorSet","inputs":[{"name":"arbitrator","type":"address","indexed":true,"internalType":"address"},{"name":"by","type":"address","indexed":true,"internalType":"address"}],"anonymous":false},{"type":"event","name":"Cancelled","inputs":[{"name":"reasonCode","type":"uint8","indexed":false,"internalType":"uint8"},{"name":"by","type":"address","indexed":true,"internalType":"address"},{"name":"refundAmount","type":"uint256","indexed":false,"internalType":"uint256"},{"name":"refundTo","type":"address","indexed":true,"internalType":"address"}],"anonymous":false},{"type":"event","name":"CourtContractSet","inputs":[{"name":"courtContract","type":"address","indexed":true,"internalType":"address"},{"name":"by","type":"address","indexed":true,"internalType":"address"}],"anonymous":false},{"type":"event","name":"ExceptionFlagged","inputs":[{"name":"reasonCode","type":"uint8","indexed":false,"internalType":"uint8"},{"name":"evidenceRef","type":"bytes32","indexed":false,"internalType":"bytes32"},{"name":"flagger","type":"address","indexed":true,"internalType":"address"}],"anonymous":false},{"type":"event","name":"ExceptionPauseSet","inputs":[{"name":"paused","type":"bool","indexed":false,"internalType":"bool"},{"name":"by","type":"address","indexed":true,"internalType":"address"}],"anonymous":false},{"type":"event","name":"Funded","inputs":[{"name":"funder","type":"address","indexed":true,"internalType":"address"},{"name":"amount","type":"uint256","indexed":false,"internalType":"uint256"},{"name":"timestamp","type":"uint256","indexed":false,"internalType":"uint256"}],"anonymous":false},{"type":"event","name":"ManualReviewResolved","inputs":[{"name":"arbitrator","type":"address","indexed":true,"internalType":"address"},{"name":"timeliness","type":"bool","indexed":false,"internalType":"bool"},{"name":"reason","type":"string","indexed":false,"internalType":"string"},{"name":"timestamp","type":"uint256","indexed":false,"internalType":"uint256"}],"anonymous":false},{"type":"event","name":"ManualReviewTimedOut","inputs":[{"name":"caller","type":"address","indexed":true,"internalType":"address"},{"name":"timestamp","type":"uint256","indexed":false,"internalType":"uint256"}],"anonymous":false},{"type":"event","name":"NotionalResized","inputs":[{"name":"oldNotional","type":"uint256","indexed":false,"internalType":"uint256"},{"name":"newNotional","type":"uint256","indexed":false,"internalType":"uint256"},{"name":"newSettlementAmount","type":"uint256","indexed":false,"internalType":"uint256"},{"name":"fulfilledBps","type":"uint256","indexed":false,"internalType":"uint256"}],"anonymous":false},{"type":"event","name":"RateLockRequested","inputs":[{"name":"requester","type":"address","indexed":true,"internalType":"address"},{"name":"timestamp","type":"uint256","indexed":false,"internalType":"uint256"}],"anonymous":false},{"type":"event","name":"RateLocked","inputs":[{"name":"rate","type":"uint256","indexed":false,"internalType":"uint256"},{"name":"benchmarkType","type":"bytes32","indexed":false,"internalType":"bytes32"},{"name":"benchmarkId","type":"bytes32","indexed":false,"internalType":"bytes32"},{"name":"asOfTimestamp","type":"uint256","indexed":false,"internalType":"uint256"},{"name":"settlementAmount","type":"uint256","indexed":false,"internalType":"uint256"}],"anonymous":false},{"type":"event","name":"RateRolled","inputs":[{"name":"priorRate","type":"uint256","indexed":false,"internalType":"uint256"},{"name":"rolledRate","type":"uint256","indexed":false,"internalType":"uint256"},{"name":"rollCost","type":"uint256","indexed":false,"internalType":"uint256"},{"name":"oldDueDate","type":"uint256","indexed":false,"internalType":"uint256"},{"name":"newDueDate","type":"uint256","indexed":false,"internalType":"uint256"},{"name":"benchmarkId","type":"bytes32","indexed":false,"internalType":"bytes32"},{"name":"asOfTimestamp","type":"uint256","indexed":false,"internalType":"uint256"}],"anonymous":false},{"type":"event","name":"RollRequested","inputs":[{"name":"requester","type":"address","indexed":true,"internalType":"address"},{"name":"currentDueDate","type":"uint256","indexed":false,"internalType":"uint256"},{"name":"requestedNewDueDate","type":"uint256","indexed":false,"internalType":"uint256"},{"name":"timestamp","type":"uint256","indexed":false,"internalType":"uint256"}],"anonymous":false},{"type":"event","name":"Settled","inputs":[{"name":"exporter","type":"address","indexed":true,"internalType":"address"},{"name":"amount","type":"uint256","indexed":false,"internalType":"uint256"},{"name":"timestamp","type":"uint256","indexed":false,"internalType":"uint256"}],"anonymous":false},{"type":"event","name":"SettlementCancelledByVerdict","inputs":[{"name":"importer","type":"address","indexed":true,"internalType":"address"},{"name":"refundAmount","type":"uint256","indexed":false,"internalType":"uint256"}],"anonymous":false},{"type":"event","name":"SettlementManualReview","inputs":[{"name":"caseId","type":"string","indexed":false,"internalType":"string"},{"name":"reviewDeadline","type":"uint256","indexed":false,"internalType":"uint256"},{"name":"timestamp","type":"uint256","indexed":false,"internalType":"uint256"}],"anonymous":false},{"type":"event","name":"ShipmentAccepted","inputs":[{"name":"by","type":"address","indexed":true,"internalType":"address"},{"name":"afterDeadline","type":"bool","indexed":false,"internalType":"bool"},{"name":"timestamp","type":"uint256","indexed":false,"internalType":"uint256"}],"anonymous":false},{"type":"event","name":"ShipmentContested","inputs":[{"name":"contestant","type":"address","indexed":true,"internalType":"address"},{"name":"manifestCid","type":"string","indexed":false,"internalType":"string"},{"name":"statement","type":"string","indexed":false,"internalType":"string"},{"name":"contestDeadline","type":"uint256","indexed":false,"internalType":"uint256"},{"name":"timestamp","type":"uint256","indexed":false,"internalType":"uint256"}],"anonymous":false},{"type":"event","name":"ShipmentVerdictReceived","inputs":[{"name":"verdict","type":"uint8","indexed":false,"internalType":"uint8"},{"name":"caseId","type":"string","indexed":false,"internalType":"string"},{"name":"reasonSummary","type":"string","indexed":false,"internalType":"string"},{"name":"deliveredBy","type":"address","indexed":true,"internalType":"address"},{"name":"fromCourtContract","type":"bool","indexed":false,"internalType":"bool"},{"name":"timestamp","type":"uint256","indexed":false,"internalType":"uint256"}],"anonymous":false},{"type":"event","name":"TradeCreated","inputs":[{"name":"exporter","type":"address","indexed":true,"internalType":"address"},{"name":"importer","type":"address","indexed":true,"internalType":"address"},{"name":"invoiceAmount","type":"uint256","indexed":false,"internalType":"uint256"},{"name":"dueDate","type":"uint256","indexed":false,"internalType":"uint256"},{"name":"invoiceRef","type":"string","indexed":false,"internalType":"string"}],"anonymous":false},{"type":"error","name":"SafeERC20FailedOperation","inputs":[{"name":"token","type":"address","internalType":"address"}]}],"bytecode":{"object":"0x60806040523461055f57613a568038038061001981610563565b9283398101906101608183031261055f5761003381610588565b9061004060208201610588565b9161004d60408301610588565b9361005a60608401610588565b9261006760808201610588565b9260a08201519360c083015160e0840151916101008501519761012086015160018060401b03811161055f57860187601f8201121561055f578051906001600160401b0382116103dc576100c4601f8301601f1916602001610563565b9782895260208901996020848401011161055f575f6020846100f3958d836101409701905e8b01015201610588565b6001600160a01b03909516998a15610525576001600160a01b03169a8b156104eb576001600160a01b03169182156104b2576001600160a01b031691821561047b57881561044257428a11156103fd575f80546001600160a01b03199081168d179091556001805482168e179055600280549091169190911790556001600160a01b038116158015906103f757815b600380546001600160a01b0319166001600160a01b0392909216919091179055156103f0575b600680546001600160a01b03929092166001600160a01b03199283161790556007805490911691909117905560088690556011869055600955600a55601485905581516001600160401b0381116103dc57600b54600181811c911680156103d2575b60208210146103be57601f8111610350575b506020601f82116001146102d95791815f516020613a365f395f51905f5297969492608096945f916102ce575b508160011b915f199060031b1c191617600b555b61271060125560ff19601954166019555f1960155560018060a01b031660018060a01b0319600554161760055560405194859384526020840152606060408401525180918160608501528484015e5f828201840152601f01601f19168101030190a3604051613499908161059d8239f35b90508301515f610249565b601f19821690600b5f52805f20915f5b8181106103385750926080969492600192825f516020613a365f395f51905f529b9a989610610320575b5050811b01600b5561025d565b8501515f1960f88460031b161c191690555f80610313565b9192602060018192868a0151815501940192016102e9565b8181111561021c57600b5f52601f820160051c7f0175b7a638427703f0dbe7bb9bbf987a2551717b34e79f33b5b1008d1fa01db9602084106103b6575b81601f9101920160051c03905f5b8281106103a957505061021c565b5f8282015560010161039b565b5f915061038d565b634e487b7160e01b5f52602260045260245ffd5b90607f169061020a565b634e487b7160e01b5f52604160045260245ffd5b50336101a8565b33610182565b60405162461bcd60e51b815260206004820152601560248201527f5446583a20647565206461746520696e207061737400000000000000000000006044820152606490fd5b60405162461bcd60e51b81526020600482015260116024820152705446583a207a65726f20696e766f69636560781b6044820152606490fd5b60405162461bcd60e51b815260206004820152600f60248201526e2a232c1d103d32b937903a37b5b2b760891b6044820152606490fd5b60405162461bcd60e51b81526020600482015260116024820152702a232c1d103d32b937903932b630bcb2b960791b6044820152606490fd5b60405162461bcd60e51b81526020600482015260126024820152712a232c1d103d32b9379034b6b837b93a32b960711b6044820152606490fd5b60405162461bcd60e51b81526020600482015260126024820152712a232c1d103d32b9379032bc3837b93a32b960711b6044820152606490fd5b5f80fd5b6040519190601f01601f191682016001600160401b038111838210176103dc57604052565b51906001600160a01b038216820361055f5756fe60806040526004361015610011575f80fd5b5f3560e01c8063017761f014612976578063096e301a146128f85780630a208972146128d057806311da60b41461284c578063165eb0f31461277a578063185a85ef146127575780631e5cae1a146126b2578063200d2ed21461268b578063219369df146126665780632297e1001461264957806322de7a6f14612613578063262e59e9146125f65780632f5685bb146125d457806334120d791461252f5780633a0a64e51461250a5780633f18b82e1461240a5780634051ddac146123735780634bbbe0cc1461234c5780634e9b0f8a146121c45780634faf61ab1461219c578063503ae34e146120f7578063504e241a146120525780635786643c146120355780635c0d82371461200d5780636293230114611fe5578063667fa04714611e985780636cc6cde114611e70578063723f99a514611cce578063735681a914611cb15780637478901d14611c945780637a32984e14611c775780637b9e618d14611c4f5780637feb545c14611c32578063820a5f5014611c155780638b07836014611bec5780638c90672f14611b475780638de6d28a14611a4257806393c7cdf51461185257806396e3470b14611836578063974c5941146116995780639818501b1461167c578063a09751091461159a578063a489d26714611370578063a98a4bd714611353578063ada9105f14610ce0578063b0eefabe14610c2d578063be83be0714610af1578063bead103e14610ad4578063c666ea0314610a30578063c81fd14014610982578063c83f06a7146107b1578063d5303c9a14610662578063e30a3bad14610645578063ed34b6301461057d578063f851a440146105555763ff36bfe414610281575f80fd5b3461055157608036600319011261055157600435602435604435606435906102b460018060a01b03600254163314612d8c565b60ff6019546102c8828260101c1615612c11565b16600881101561053d5760046102de9114612c5d565b6102e9841515612dcb565b601854925f601855600c54601454916040519161030583612ab1565b825260208201918783526040810193828552606082019081526080820188815260a0830187815260c08401918983526017549368010000000000000000851015610529576001850180601755851015610515577f1943afe84359be0f2ba34df371aa5bc0aa81424cab67fef39b0105bf13141f699860e09860077fc624b66cc0138b8fabc209247f72d758e1cf3343756d543badbf24212bed8c1b9760175f52029751887fc624b66cc0138b8fabc209247f72d758e1cf3343756d543badbf24212bed8c150155517fc624b66cc0138b8fabc209247f72d758e1cf3343756d543badbf24212bed8c16880155517fc624b66cc0138b8fabc209247f72d758e1cf3343756d543badbf24212bed8c17870155517fc624b66cc0138b8fabc209247f72d758e1cf3343756d543badbf24212bed8c18860155517fc624b66cc0138b8fabc209247f72d758e1cf3343756d543badbf24212bed8c19850155517fc624b66cc0138b8fabc209247f72d758e1cf3343756d543badbf24212bed8c1a84015551910155600c549060145490604051928352886020840152604083015260608201528560808201528360a08201528460c0820152a183600c55600e55600f556014556016545f19811461050157670de0b6b3a76400009160016104ee9201601655601154612e08565b046010556019805460ff19166005179055005b634e487b7160e01b5f52601160045260245ffd5b634e487b7160e01b5f52603260045260245ffd5b634e487b7160e01b5f52604160045260245ffd5b634e487b7160e01b5f52602160045260245ffd5b5f80fd5b34610551575f366003190112610551576003546040516001600160a01b039091168152602090f35b3461055157602036600319011261055157610596612b77565b6105ab60018060a01b03600354163314612e7b565b6019549060ff8260081c16156106005715159062ff00008260101b169062ff00001916176019556040519081527f3c1cf6dbd034882b9d267167e0558590c91f438285afa93e93899df7c2f8c30260203392a2005b60405162461bcd60e51b815260206004820152601960248201527f5446583a206e6f20657863657074696f6e20666c6167676564000000000000006044820152606490fd5b34610551575f366003190112610551576020601654604051908152f35b34610551575f366003190112610551576017546001600160401b038111610529576040519061069760208260051b0183612acc565b80825260208201908160175f527fc624b66cc0138b8fabc209247f72d758e1cf3343756d543badbf24212bed8c155f915b838310610752578486604051918291602083019060208452518091526040830191905f5b8181106106fa575050500390f35b91935091602060e060019260c0875180518352848101518584015260408101516040840152606081015160608401526080810151608084015260a081015160a0840152015160c08201520194019101918493926106ec565b6007602060019260405161076581612ab1565b855481528486015483820152600286015460408201526003860154606082015260048601546080820152600586015460a0820152600686015460c08201528152019201920191906106c8565b34610551575f366003190112610551576107d660018060a01b03600154163314612e1b565b60ff6019546107ea828260101c1615612c11565b16600881101561053d5760028114908115610977575b50156109285760105480156108e3578060135560018060a01b036007541690604051906323b872dd60e01b5f52336004523060245260445260205f60648180865af19060015f51148216156108c2575b6040525f606052156108b057600360ff19601954161760195562093a804201804211610501576015556010546040519081524260208201527fcd909ec339185c4598a4096e174308fbdf136d117f230960f873a2f2e81f63af60403392a2005b635274afe760e01b5f5260045260245ffd5b9060018115166108da57823b15153d15161690610850565b503d5f823e3d90fd5b60405162461bcd60e51b815260206004820152601e60248201527f5446583a20736574746c656d656e7420616d6f756e74206e6f742073657400006044820152606490fd5b60405162461bcd60e51b815260206004820152602160248201527f5446583a2063616e6e6f742066756e6420696e2063757272656e7420737461746044820152606560f81b6064820152608490fd5b600591501481610800565b346105515760203660031901126105515761099b612b61565b6109b060018060a01b03600354163314612e7b565b6001600160a01b031680156109f957600480546001600160a01b0319168217905533907f7463c06c46d1caf16438de0e6f4fe963ce0934e62b90e34d6fab43c8e3cd006f5f80a3005b60405162461bcd60e51b815260206004820152600f60248201526e1511960e881e995c9bc818dbdd5c9d608a1b6044820152606490fd5b34610551575f366003190112610551575f546001600160a01b031633148015610ac0575b610a5d90612bd2565b60ff601954610a71828260101c1615612c11565b16600881101561053d57610a859015612c5d565b600160ff1960195416176019556040514281527fe082272b702e2eab6b62fabd7a1ad7ab9e60dcd6c3346f51916b1a8248eac12760203392a2005b506001546001600160a01b03163314610a54565b34610551575f366003190112610551576020600a54604051908152f35b3461055157604036600319011261055157610b0a612b77565b6024356001600160401b03811161055157610b29903690600401612b1e565b6006549091906001600160a01b03163303610bf25760ff601b5416600681101561053d577f2e2c0407515b972a1b3b6f90d0299d45a11915d914d6841430b612dea6ba200391610b7e6005610b989314612b86565b604051938515158552606060208601526060850191612e5b565b914260408201528033930390a215610bca57610bbc600360ff19601b541617601b55565b6019805462ff000019169055005b610bdc600460ff19601b541617601b55565b62ff00001960195416601955610bf0612eb8565b005b60405162461bcd60e51b81526020600482015260136024820152722a232c1d103737ba1030b93134ba3930ba37b960691b6044820152606490fd5b3461055157602036600319011261055157610c46612b61565b610c5b60018060a01b03600354163314612e7b565b6001600160a01b03168015610ca457600680546001600160a01b0319168217905533907f5226cf13e29e7b252c6722ac95bc9beb40dfd336d700c1c8469a44b9dbcd80da5f80a3005b60405162461bcd60e51b81526020600482015260146024820152732a232c1d103d32b9379030b93134ba3930ba37b960611b6044820152606490fd5b34610551576060366003190112610551576004356001600160401b03811161055157610d10903690600401612b1e565b6024356001600160401b03811161055157610d2f903690600401612b1e565b6044356001600160401b03811161055157610d4e903690600401612b1e565b90610d6460018060a01b03600154163314612e1b565b60ff601954166008811015908161053d57600681141580611345575b610d8990612c9e565b60ff601b5416600681101561053d57610da3839115612d31565b61053d5760028114918215611338575b8215611327575b5050156112d657601554421161126b57600260ff19601b541617601b556001600160401b03851161052957610df0601d54612a5e565b601f81116111fd575b505f85601f811160011461117b5780610e26925f91611170575b508160011b915f199060031b1c19161790565b601d555b6001600160401b03831161052957610e43601f54612a5e565b601f8111611102575b505f83601f81116001146110805780610e78925f9161107557508160011b915f199060031b1c19161790565b601f555b6001600160401b03821161052957610e95601e54612a5e565b601f8111611007575b505f90601f8311600114610f5d57827f5d1582f88acb83cee71f3cb3617da2b9fe18b7d1cfe747a1c136342b2476d5ec969593610f3e9593610ef5935f92610f52575b50508160011b915f199060031b1c19161790565b601e555b600160ff1960225416176022556201000062ff0000196019541617601955610f306015549660405195608087526080870191612e5b565b918483036020860152612e5b565b9260408201524260608201528033930390a2005b013590508980610ee1565b601f19831691601e5f527f50bb669a95c7b50b7e8a6f09454034b2b14cf2b85c730dca9a539ca82cb6e350925f5b818110610fef57509260019285927f5d1582f88acb83cee71f3cb3617da2b9fe18b7d1cfe747a1c136342b2476d5ec999896610f3e989610610fd6575b505050811b01601e55610ef9565b01355f19600384901b60f8161c19169055888080610fc8565b91936020600181928787013581550195019201610f8b565b82811115610e9e57601e5f52601f830160051c7f50bb669a95c7b50b7e8a6f09454034b2b14cf2b85c730dca9a539ca82cb6e3506020851061106d575b81601f9101920160051c03905f5b828110611060575050610e9e565b5f82820155600101611052565b5f9150611044565b905086013589610e13565b50601f19841690601f5f52847fa03837a25210ee280c2113ff4b77ca23440b19d4866cca721c801278fd08d807925f5b8181106110e75750106110ce575b5050600183811b01601f55610e7c565b8501355f19600386901b60f8161c1916905586806110be565b888401358555600190940193602093840193889350016110b0565b83811115610e4c57601f5f819052840160051c7fa03837a25210ee280c2113ff4b77ca23440b19d4866cca721c801278fd08d80760208610611168575b81601f9101920160051c03905f5b82811061115b575050610e4c565b5f8282015560010161114d565b5f915061113f565b905088013589610e13565b50601f19861690601d5f52867f6d4407e7be21f808e6509aa9fa9143369579dd7d760fe20a2c09680fc146134f925f5b8181106111e25750106111c9575b5050600185811b01601d55610e2a565b8701355f19600388901b60f8161c1916905586806111b9565b8a84013585556001909401936020938401938a9350016111ab565b85811115610df957601d5f52601f860160051c7f6d4407e7be21f808e6509aa9fa9143369579dd7d760fe20a2c09680fc146134f60208810611263575b81601f9101920160051c03905f5b828110611256575050610df9565b5f82820155600101611248565b5f915061123a565b60405162461bcd60e51b815260206004820152603760248201527f5446583a20636f6e7465737420646561646c696e6520706173736564202d207360448201527f6869706d656e74206465656d65642061636365707465640000000000000000006064820152608490fd5b60405162461bcd60e51b8152602060048201526024808201527f5446583a2063616e6e6f7420636f6e7465737420696e2063757272656e7420736044820152637461746560e01b6064820152608490fd5b90915061053d576003148780610dba565b506005811491505f610db3565b505f91506007811415610d80565b34610551575f366003190112610551576020601454604051908152f35b346105515760603660031901126105515760043563ffffffff81160361055157611398612b4b565b506044356001600160401b038111610551576113b8903690600401612b1e565b6005546001600160a01b031633036115625781016040828203126105515781356001600160a01b0381169290839003610551576020810135906001600160401b03821161055157019080601f830112156105515781602061141b93359101612cfb565b9030036115265780518101606082602083019203126105515760208201516001600160a01b038116908190036105515760408301519260ff84168403610551576060810151906001600160401b038211610551570182603f820112156105515760208101519061148a82612ce0565b936114986040519586612acc565b8285526040828401011161055157815f926040602093018387015e8401015230036114ed57610bf091604051906114d0604083612acc565b600b82526a262d16a3a2a72620aca2a960a91b6020830152612fad565b60405162461bcd60e51b81526020600482015260116024820152701511960e881ddc9bdb99c81d185c99d95d607a1b6044820152606490fd5b60405162461bcd60e51b81526020600482015260146024820152731511960e881ddc9bdb99c81859dc99595b595b9d60621b6044820152606490fd5b60405162461bcd60e51b815260206004820152601060248201526f5446583a206f6e6c792062726964676560801b6044820152606490fd5b34610551575f366003190112610551576040515f601e546115ba81612a5e565b808452906001811690811561165857506001146115fa575b6115f6836115e281850382612acc565b604051918291602083526020830190612aed565b0390f35b601e5f9081527f50bb669a95c7b50b7e8a6f09454034b2b14cf2b85c730dca9a539ca82cb6e350939250905b80821061163e575090915081016020016115e26115d2565b919260018160209254838588010152019101909291611626565b60ff191660208086019190915291151560051b840190910191506115e290506115d2565b34610551575f366003190112610551576020601054604051908152f35b34610551575f366003190112610551575f546001600160a01b031633148015611822575b6116c690612bd2565b6019546116d960ff8260101c1615612c11565b60ff601b5416600681101561053d5760018114908115611817575b50156117c45760ff16600881101561053d5760030361177f576013545f601355611726600660ff196019541617601955565b6007545f546117439183916001600160a01b039081169116612f35565b7f468aeeec0e901c52363552a06c1e39331d44c3cc886eb200af127ded3f380f82604060018060a01b035f5416928151908152426020820152a2005b60405162461bcd60e51b815260206004820152601f60248201527f5446583a206d7573742062652066756e64656420746f2066696e616c697a65006044820152606490fd5b60405162461bcd60e51b815260206004820152602560248201527f5446583a20736869706d656e74206e6f7420636f6e6669726d65642061732074604482015264696d656c7960d81b6064820152608490fd5b6003915014826116f4565b506001546001600160a01b031633146116bd565b34610551575f3660031901126105515760208054604051908152f35b34610551576020366003190112610551575f54600435906001600160a01b03163303611a095760ff60195461188c828260101c1615612c11565b16600881101561053d57600281149081156119fe575b50156119b957801515806119ae575b15611971576012548110156119335760807f0463fdb27006d5a65dfd357dab584a75ca5b3f1db1793ef451634eb092c84e1291601154906127106118f782600854612e08565b048060115581601255670de0b6b3a7640000611915600c5483612e08565b049081601055604051938452602084015260408301526060820152a1005b60405162461bcd60e51b81526020600482015260166024820152755446583a20627073206d75737420646563726561736560501b6044820152606490fd5b60405162461bcd60e51b81526020600482015260156024820152745446583a20627073206f7574206f662072616e676560581b6044820152606490fd5b5061271081106118b1565b60405162461bcd60e51b815260206004820152601f60248201527f5446583a20726573697a65206f6e6c79206265666f72652066756e64696e67006044820152606490fd5b6005915014826118a2565b60405162461bcd60e51b81526020600482015260116024820152702a232c1d103737ba1032bc3837b93a32b960791b6044820152606490fd5b34610551576080366003190112610551576004356024356044359160643591611a7660018060a01b03600254163314612d8c565b60ff601954611a8a828260101c1615612c11565b1692600884101561053d577f8fe7adb9d88091ef45bdb5a0327af76405cbc60deaffe25b9df0e055c20a611b94611ac5600160a09614612c5d565b611ad0841515612dcb565b816060604051611adf81612a96565b868152856020820152836040820152015283600c5582600d5580600e5581600f55670de0b6b3a7640000611b1585601154612e08565b04601055600260ff196019541617601955601054926040519485526020850152604084015260608301526080820152a1005b34610551575f366003190112610551576040515f600b54611b6781612a5e565b80845290600181169081156116585750600114611b8e576115f6836115e281850382612acc565b600b5f9081527f0175b7a638427703f0dbe7bb9bbf987a2551717b34e79f33b5b1008d1fa01db9939250905b808210611bd2575090915081016020016115e26115d2565b919260018160209254838588010152019101909291611bba565b34610551575f3660031901126105515760ff601b5416604051600682101561053d576020918152f35b34610551575f366003190112610551576020601354604051908152f35b34610551575f366003190112610551576020600954604051908152f35b34610551575f366003190112610551576007546040516001600160a01b039091168152602090f35b34610551575f366003190112610551576020601254604051908152f35b34610551575f366003190112610551576020600854604051908152f35b34610551575f366003190112610551576020601a54604051908152f35b34610551575f3660031901126105515760ff601954166008811015908161053d57600681141580611e62575b611d0390612c9e565b60ff601b5416600681101561053d57611d1d839115612d31565b61053d5760028114918215611e55575b8215611e44575b505015611dea5760155442118015611d88575b600160ff19601b541617601b556040519081524260208201527ff410075d2dc68634bc421dcdfbce03adaea75fa706d772bd5d034a658e65380c60403392a2005b6001546001600160a01b03163314611d475760405162461bcd60e51b815260206004820152602260248201527f5446583a206f6e6c7920696d706f72746572206265666f726520646561646c696044820152616e6560f01b6064820152608490fd5b60405162461bcd60e51b815260206004820152602c60248201527f5446583a2063616e6e6f742061636365707420736869706d656e7420696e206360448201526b757272656e7420737461746560a01b6064820152608490fd5b90915061053d576003148180611d34565b506005811491505f611d2d565b505f91506007811415611cfa565b34610551575f366003190112610551576006546040516001600160a01b039091168152602090f35b3461055157602036600319011261055157611eb1612a4e565b5f546001600160a01b031633148015611fd1575b8015611fbd575b15611f825760ff60195416600881101561053d57806006611ef69214159081611f76575b50612c9e565b6013549060018060a01b0360015416915f601355611f1c600760ff196019541617601955565b80611f58575b60ff6040519216825260208201527fbeb2436210b4808956874f19f645e85c3285d14833015910c580129394cc967f60403392a3005b600754611f7190829085906001600160a01b0316612f35565b611f22565b60079150141583611ef0565b60405162461bcd60e51b81526020600482015260136024820152721511960e881b9bdd08185d5d1a1bdc9a5e9959606a1b6044820152606490fd5b506003546001600160a01b03163314611ecc565b506001546001600160a01b03163314611ec5565b34610551575f366003190112610551576001546040516001600160a01b039091168152602090f35b34610551575f366003190112610551576004546040516001600160a01b039091168152602090f35b34610551575f366003190112610551576020601154604051908152f35b34610551575f366003190112610551576040515f601c5461207281612a5e565b80845290600181169081156116585750600114612099576115f6836115e281850382612acc565b601c5f9081527f0e4562a10381dec21b205ed72637e6b1b523bdd0e4d4d50af5cd23dd4500a211939250905b8082106120dd575090915081016020016115e26115d2565b9192600181602092548385880101520191019092916120c5565b34610551575f366003190112610551576040515f60215461211781612a5e565b8084529060018116908115611658575060011461213e576115f6836115e281850382612acc565b60215f9081527f3a6357012c1a3ae0a17d304c9920310382d968ebcc4b1771f41c6b304205b570939250905b808210612182575090915081016020016115e26115d2565b91926001816020925483858801015201910190929161216a565b34610551575f366003190112610551576002546040516001600160a01b039091168152602090f35b346105515760203660031901126105515760043560018060a01b035f541633148015612338575b6121f490612bd2565b60ff601954612208828260101c1615612c11565b166008811015908161053d576002811491821561232b575b821561231a575b5050156122cb576014548111156122865780601855600460ff1960195416176019556014549060405191825260208201524260408201527fbdd365a79d2543b27ac131514a83756b481d72eab6d788a4da1f6a59b2c4912460603392a2005b60405162461bcd60e51b815260206004820152601b60248201527f5446583a206e65772064617465206d757374206265206c6174657200000000006044820152606490fd5b60405162461bcd60e51b815260206004820152602160248201527f5446583a2063616e6e6f7420726f6c6c20696e2063757272656e7420737461746044820152606560f81b6064820152608490fd5b90915061053d576003148280612227565b506005811491505f612220565b506001546001600160a01b031633146121eb565b34610551575f366003190112610551575f546040516001600160a01b039091168152602090f35b34610551575f36600319011261055157610160601954600854906011549060ff60105491601354601454601554906016549260018060a01b03600454169660018060a01b0360065416986040519a6123cd8c8a8a16612b11565b60208c015260408b015260608a0152608089015260a088015260c087015260e086015260081c161515610100840152610120830152610140820152f35b3461055157606036600319011261055157612423612a4e565b6024356001600160401b03811161055157612442903690600401612b1e565b91906044356001600160401b03811161055157612463903690600401612b1e565b919060018060a01b0360025416331480156124e3575b1561249e5761249061249892610bf0963691612cfb565b923691612cfb565b91612fad565b60405162461bcd60e51b815260206004820152601760248201527f5446583a206e6f74207665726469637420736f757263650000000000000000006044820152606490fd5b506004546001600160a01b03168015159081612500575b50612479565b90503314866124fa565b34610551575f36600319011261055157602060ff60195460081c166040519015158152f35b34610551575f366003190112610551576040515f601f5461254f81612a5e565b80845290600181169081156116585750600114612576576115f6836115e281850382612acc565b601f5f9081527fa03837a25210ee280c2113ff4b77ca23440b19d4866cca721c801278fd08d807939250905b8082106125ba575090915081016020016115e26115d2565b9192600181602092548385880101520191019092916125a2565b34610551575f36600319011261055157602060ff602254166040519015158152f35b34610551575f366003190112610551576020601554604051908152f35b34610551575f366003190112610551576080600c54600d54600e54600f5491604051938452602084015260408301526060820152f35b34610551575f366003190112610551576020604051621275008152f35b34610551575f36600319011261055157602060ff60195460101c166040519015158152f35b34610551575f36600319011261055157602060ff601954166126b06040518092612b11565bf35b34610551575f366003190112610551576040515f601d546126d281612a5e565b808452906001811690811561165857506001146126f9576115f6836115e281850382612acc565b601d5f9081527f6d4407e7be21f808e6509aa9fa9143369579dd7d760fe20a2c09680fc146134f939250905b80821061273d575090915081016020016115e26115d2565b919260018160209254838588010152019101909291612725565b34610551575f36600319011261055157602060ff60195460181c16604051908152f35b3461055157604036600319011261055157612793612a4e565b60243560018060a01b035f541633148015612838575b6127b290612bd2565b60195460ff811690600882101561053d576127db826006610100941415908161282c5750612c9e565b63ff0000008460181b169063ff00ff001916171760195580601a5560ff6040519216825260208201527f3c36678e3022a469fbd8b81bc12b3eb332fe29c5c8f4ee29fcfb8465bc36695c60403392a2005b60079150141586611ef0565b506001546001600160a01b031633146127a9565b34610551575f366003190112610551575f546001600160a01b0316331480156128bc575b61287990612bd2565b60ff60195461288d828260101c1615612c11565b16600881101561053d5760036128a39114612c5d565b6013545f601355611726600660ff196019541617601955565b506001546001600160a01b03163314612870565b34610551575f366003190112610551576005546040516001600160a01b039091168152602090f35b34610551575f366003190112610551575f606060405161291781612a96565b8281528260208201528260408201520152608060405161293681612a96565b600c5490818152600d5460208201908152600e5490604083019182526060600f549301928352604051938452516020840152516040830152516060820152f35b34610551575f3660031901126105515760ff601b5416600681101561053d5760056129a19114612b86565b6020548015159081612a37575b50156129f2576040514281527f1ee13e4a2b923d6e980e6160f5cb342ca40e2c9689b2f33e1bed1f3c2069637860203392a2610bdc600460ff19601b541617601b55565b60405162461bcd60e51b815260206004820152601e60248201527f5446583a207265766965772077696e646f77206e6f7420656c617073656400006044820152606490fd5b9050621275008101809111610501574211816129ae565b6004359060ff8216820361055157565b90600182811c92168015612a8c575b6020831014612a7857565b634e487b7160e01b5f52602260045260245ffd5b91607f1691612a6d565b608081019081106001600160401b0382111761052957604052565b60e081019081106001600160401b0382111761052957604052565b90601f801991011681019081106001600160401b0382111761052957604052565b805180835260209291819084018484015e5f828201840152601f01601f1916010190565b90600882101561053d5752565b9181601f84011215610551578235916001600160401b038311610551576020838186019501011161055157565b602435906001600160a01b038216820361055157565b600435906001600160a01b038216820361055157565b60043590811515820361055157565b15612b8d57565b60405162461bcd60e51b815260206004820152601d60248201527f5446583a206e6f206d616e75616c207265766965772070656e64696e670000006044820152606490fd5b15612bd957565b60405162461bcd60e51b815260206004820152601060248201526f5446583a206e6f74206120706172747960801b6044820152606490fd5b15612c1857565b60405162461bcd60e51b815260206004820152601860248201527f5446583a2070617573656420627920657863657074696f6e00000000000000006044820152606490fd5b15612c6457565b60405162461bcd60e51b81526020600482015260126024820152715446583a20696e76616c696420737461746560701b6044820152606490fd5b15612ca557565b60405162461bcd60e51b81526020600482015260136024820152725446583a207465726d696e616c20737461746560681b6044820152606490fd5b6001600160401b03811161052957601f01601f191660200190565b929192612d0782612ce0565b91612d156040519384612acc565b829481845281830111610551578281602093845f960137010152565b15612d3857565b60405162461bcd60e51b815260206004820152602660248201527f5446583a20736869706d656e742072657669657720616c726561647920696e696044820152651d1a585d195960d21b6064820152608490fd5b15612d9357565b60405162461bcd60e51b815260206004820152601060248201526f2a232c1d103737ba103932b630bcb2b960811b6044820152606490fd5b15612dd257565b60405162461bcd60e51b815260206004820152600e60248201526d5446583a207a65726f207261746560901b6044820152606490fd5b8181029291811591840414171561050157565b15612e2257565b60405162461bcd60e51b81526020600482015260116024820152702a232c1d103737ba1034b6b837b93a32b960791b6044820152606490fd5b908060209392818452848401375f828201840152601f01601f1916010190565b15612e8257565b60405162461bcd60e51b815260206004820152600e60248201526d2a232c1d103737ba1030b236b4b760911b6044820152606490fd5b6013545f601355612ed1600760ff196019541617601955565b80612f12575b6001546040519182526001600160a01b0316907fd33ccdf9c03bdf3d28eb9cd91d9278cf77b0125b1631cf691b4219602f0ceffa90602090a2565b600754600154612f309183916001600160a01b039081169116612f35565b612ed7565b916040519163a9059cbb60e01b5f5260018060a01b031660045260245260205f60448180865af19060015f5114821615612f95575b60405215612f755750565b635274afe760e01b5f9081526001600160a01b0391909116600452602490fd5b9060018115166108da57823b15153d15161690612f6a565b91909160ff601b5416600681101561053d5760020361341e576004546001600160a01b0316801515919082613414575b5083516001600160401b03811161052957612ff9601c54612a5e565b601f81116133a6575b506020601f821160011461332657908061302f925f9161320b57508160011b915f199060031b1c19161790565b601c555b82516001600160401b0381116105295761304e602154612a5e565b601f81116132b8575b506020601f821160011461321657817f36672c34fcd1d1172b8ed90a5c5ebf0dcfe06cd22f41098be71b03a58643185393926130a6925f9161320b57508160011b915f199060031b1c19161790565b6021555b426020556130de60ff60405192169485835260a060208401526130d060a0840188612aed565b908382036040850152612aed565b92151560608201524260808201528033930390a26001810361311d57505061310e600360ff19601b541617601b55565b62ff000019601954166019555b565b6002810361314d575050613139600460ff19601b541617601b55565b62ff0000196019541660195561311b612eb8565b6003036131c657600560ff19601b541617601b55600160ff196022541617602255621275004201804211610501577f60901e423fac6287980ad06a0bc6b3bb89448c2b86bbade62435d3106eabd433916131b591604051928392606084526060840190612aed565b9060208301524260408301520390a1565b60405162461bcd60e51b815260206004820152601960248201527f5446583a20696e76616c6964207665726469637420636f6465000000000000006044820152606490fd5b90508601515f610e13565b601f1982169060215f527f3a6357012c1a3ae0a17d304c9920310382d968ebcc4b1771f41c6b304205b570915f5b8181106132a057509183917f36672c34fcd1d1172b8ed90a5c5ebf0dcfe06cd22f41098be71b03a586431853959460019410613288575b5050811b016021556130aa565b8701515f1960f88460031b161c191690555f8061327b565b9192602060018192868b015181550194019201613244565b818111156130575760215f52601f820160051c7f3a6357012c1a3ae0a17d304c9920310382d968ebcc4b1771f41c6b304205b5706020841061331e575b81601f9101920160051c03905f5b828110613311575050613057565b5f82820155600101613303565b5f91506132f5565b601f19821690601c5f527f0e4562a10381dec21b205ed72637e6b1b523bdd0e4d4d50af5cd23dd4500a211915f5b81811061338e57509083600194939210613376575b5050811b01601c55613033565b8701515f1960f88460031b161c191690555f80613369565b9192602060018192868c015181550194019201613354565b8181111561300257601c5f52601f820160051c7f0e4562a10381dec21b205ed72637e6b1b523bdd0e4d4d50af5cd23dd4500a2116020841061340c575b81601f9101920160051c03905f5b8281106133ff575050613002565b5f828201556001016133f1565b5f91506133e3565b331491505f612fdd565b60405162461bcd60e51b815260206004820152601f60248201527f5446583a206e6f2061637469766520736869706d656e7420636f6e74657374006044820152606490fdfea2646970667358221220e1033a604a14e64a3b54758c31e6b64724dbc63b6ad48f003bdf821f34fa452264736f6c63430008210033bb5fd511e52e015eb19dab8dd103d9cec0091f40e6a698aeab6b4c4d221b8265","linkReferences":{}},"methodIdentifiers":{"MANUAL_REVIEW_WINDOW()":"2297e100","acceptShipment()":"723f99a5","admin()":"f851a440","arbitrator()":"6cc6cde1","bridgeReceiver()":"0a208972","cancelAndRefund(uint8)":"667fa047","contestDeadline()":"262e59e9","contestShipment(string,string,string)":"ada9105f","courtContract()":"5c0d8237","currentDueDate()":"a98a4bd7","currentNotional()":"5786643c","exceptionFlagged()":"3a0a64e5","exceptionPaused()":"219369df","exceptionReasonCode()":"185a85ef","exceptionRef()":"735681a9","exporter()":"4bbbe0cc","finalizeAfterShipment()":"974c5941","flagException(uint8,bytes32)":"165eb0f3","fulfilledBps()":"7a32984e","fundSettlement()":"c83f06a7","fundedAmount()":"820a5f50","getLockedRate()":"096e301a","getRollHistory()":"d5303c9a","getSummary()":"4051ddac","importer()":"62932301","invoiceAmount()":"7478901d","invoiceRef()":"8c90672f","lockedRate()":"22de7a6f","oracleRelayer()":"4faf61ab","processBridgeMessage(uint32,address,bytes)":"a489d267","receiveRate(uint256,bytes32,bytes32,uint256)":"8de6d28a","receiveRolledRate(uint256,uint256,bytes32,uint256)":"ff36bfe4","requestRateLock()":"c666ea03","requestRoll(uint256)":"4e9b0f8a","resize(uint256)":"93c7cdf5","resolveManualReview(bool,string)":"be83be07","resolveShipmentVerdict(uint8,string,string)":"3f18b82e","rollCount()":"e30a3bad","setArbitrator(address)":"b0eefabe","setCourtContract(address)":"c81fd140","setExceptionPause(bool)":"ed34b630","settle()":"11da60b4","settlementAmount()":"9818501b","settlementCurrency()":"bead103e","settlementToken()":"7b9e618d","shipmentCaseId()":"504e241a","shipmentGuidelineVersion()":"a0975109","shipmentManifestCid()":"1e5cae1a","shipmentReviewRequired()":"2f5685bb","shipmentStatement()":"34120d79","shipmentStatus()":"8b078360","shipmentVerdictAt()":"96e3470b","shipmentVerdictReason()":"503ae34e","sourceCurrency()":"7feb545c","status()":"200d2ed2","timeoutManualReview()":"017761f0"},"id":40}